{
  "_format": "hh-sol-artifact-1",
  "contractName": "LongVaultFactory",
  "sourceName": "contracts/LongVaultFactory.sol",
  "abi": [
    {
      "inputs": [
        {
          "internalType": "address",
          "name": "implementation_",
          "type": "address"
        }
      ],
      "stateMutability": "nonpayable",
      "type": "constructor"
    },
    {
      "anonymous": false,
      "inputs": [
        {
          "indexed": false,
          "internalType": "address payable",
          "name": "admin",
          "type": "address"
        },
        {
          "indexed": false,
          "internalType": "address payable",
          "name": "beneficiary",
          "type": "address"
        },
        {
          "indexed": false,
          "internalType": "address",
          "name": "cloneAddress",
          "type": "address"
        },
        {
          "indexed": false,
          "internalType": "uint256",
          "name": "timestamp",
          "type": "uint256"
        }
      ],
      "name": "LongVaultCreated",
      "type": "event"
    },
    {
      "inputs": [
        {
          "internalType": "uint256",
          "name": "",
          "type": "uint256"
        }
      ],
      "name": "allLongVaults",
      "outputs": [
        {
          "internalType": "address",
          "name": "admin",
          "type": "address"
        },
        {
          "internalType": "address",
          "name": "beneficiary",
          "type": "address"
        },
        {
          "internalType": "address",
          "name": "cloneAddress",
          "type": "address"
        },
        {
          "internalType": "uint256",
          "name": "timestamp",
          "type": "uint256"
        }
      ],
      "stateMutability": "view",
      "type": "function"
    },
    {
      "inputs": [
        {
          "internalType": "address payable",
          "name": "beneficiary_",
          "type": "address"
        },
        {
          "internalType": "bytes20",
          "name": "salt_",
          "type": "bytes20"
        }
      ],
      "name": "createLongVault",
      "outputs": [
        {
          "internalType": "address payable",
          "name": "longVaultClone",
          "type": "address"
        }
      ],
      "stateMutability": "nonpayable",
      "type": "function"
    },
    {
      "inputs": [],
      "name": "getAllLongVaults",
      "outputs": [
        {
          "components": [
            {
              "internalType": "address",
              "name": "admin",
              "type": "address"
            },
            {
              "internalType": "address",
              "name": "beneficiary",
              "type": "address"
            },
            {
              "internalType": "address",
              "name": "cloneAddress",
              "type": "address"
            },
            {
              "internalType": "uint256",
              "name": "timestamp",
              "type": "uint256"
            }
          ],
          "internalType": "struct LongVaultFactory.LongVaultsEntry[]",
          "name": "",
          "type": "tuple[]"
        }
      ],
      "stateMutability": "view",
      "type": "function"
    },
    {
      "inputs": [],
      "name": "getImplementationBeneficiary",
      "outputs": [
        {
          "internalType": "address",
          "name": "",
          "type": "address"
        }
      ],
      "stateMutability": "view",
      "type": "function"
    },
    {
      "inputs": [],
      "name": "getLongVaultImplementation",
      "outputs": [
        {
          "internalType": "address",
          "name": "",
          "type": "address"
        }
      ],
      "stateMutability": "view",
      "type": "function"
    }
  ],
  "bytecode": "0x60a060405234801561001057600080fd5b506040516106a43803806106a483398101604081905261002f91610058565b60601b6001600160601b03191660805260008054336001600160a01b0319909116179055610088565b60006020828403121561006a57600080fd5b81516001600160a01b038116811461008157600080fd5b9392505050565b60805160601c6105f86100ac600039600081816088015261024d01526105f86000f3fe608060405234801561001057600080fd5b50600436106100575760003560e01c806312a0c9a31461005c578063ad8f242a14610086578063c84133ea146100ac578063d0a50207146100f4578063d432f0cb14610109575b600080fd5b6000546001600160a01b03165b6040516001600160a01b0390911681526020015b60405180910390f35b7f0000000000000000000000000000000000000000000000000000000000000000610069565b6100bf6100ba366004610537565b61011c565b60405161007d94939291906001600160a01b039485168152928416602084015292166040820152606081019190915260800190565b6100fc610166565b60405161007d9190610550565b6100696101173660046104e0565b6101f7565b6001818154811061012c57600080fd5b600091825260209091206004909102018054600182015460028301546003909301546001600160a01b039283169450908216929091169084565b60606001805480602002602001604051908101604052809291908181526020016000905b828210156101ee576000848152602090819020604080516080810182526004860290920180546001600160a01b039081168452600180830154821685870152600283015490911692840192909252600301546060830152908352909201910161018a565b50505050905090565b6040516bffffffffffffffffffffffff19808316602083015233606081811b8316603485015285901b90911660488301526000918290605c016040516020818303038152906040528051906020012090506102727f00000000000000000000000000000000000000000000000000000000000000008261043c565b60405163485cc95560e01b81526001600160a01b03848116600483015287811660248301529194509084169063485cc95590604401600060405180830381600087803b1580156102c157600080fd5b505af11580156102d5573d6000803e3d6000fd5b505060408051608080820183526001600160a01b038781168084528b821660208086018281528c8516878901818152426060808b018281526001805480820182556000919091529b516004909c027fb10e2d527612073b26eecdfd717e6a320cf44b4afac2b0732d9fcbe2b7fa0cf6810180549d8c166001600160a01b03199e8f1617905595517fb10e2d527612073b26eecdfd717e6a320cf44b4afac2b0732d9fcbe2b7fa0cf787018054918c16918e1691909117905592517fb10e2d527612073b26eecdfd717e6a320cf44b4afac2b0732d9fcbe2b7fa0cf88601805491909a169b169a909a17909755517fb10e2d527612073b26eecdfd717e6a320cf44b4afac2b0732d9fcbe2b7fa0cf990920191909155875193845290830191909152948101949094529183018290529093507f9d97c3da40433872c3b272041498977643ebe1e05370ca2699720cfb126104af92500160405180910390a15050505b92915050565b6000604051733d602d80600a3d3981f3363d3d373d3d3d363d7360601b81528360601b60148201526e5af43d82803e903d91602b57fd5bf360881b6028820152826037826000f59150506001600160a01b0381166104365760405162461bcd60e51b815260206004820152601760248201527f455243313136373a2063726561746532206661696c6564000000000000000000604482015260640160405180910390fd5b600080604083850312156104f357600080fd5b82356001600160a01b038116811461050a57600080fd5b915060208301356bffffffffffffffffffffffff198116811461052c57600080fd5b809150509250929050565b60006020828403121561054957600080fd5b5035919050565b602080825282518282018190526000919060409081850190868401855b828110156105b557815180516001600160a01b03908116865287820151811688870152868201511686860152606090810151908501526080909301929085019060010161056d565b509197965050505050505056fea2646970667358221220b66e697a928cd32fcefcadf13cd1d1ff1eb4250b5a0f7a4c661a7fc01c7785b564736f6c63430008060033",
  "linkReferences": {},
  "deployedLinkReferences": {}
}