{
  "_format": "hh-sol-artifact-1",
  "contractName": "LongVaultFactory",
  "sourceName": "contracts/LongVaultFactory.sol",
  "abi": [
    {
      "inputs": [
        {
          "internalType": "address",
          "name": "implementation_",
          "type": "address"
        }
      ],
      "stateMutability": "nonpayable",
      "type": "constructor"
    },
    {
      "anonymous": false,
      "inputs": [
        {
          "indexed": false,
          "internalType": "address payable",
          "name": "admin",
          "type": "address"
        },
        {
          "indexed": false,
          "internalType": "address payable",
          "name": "beneficiary",
          "type": "address"
        },
        {
          "indexed": false,
          "internalType": "address",
          "name": "cloneAddress",
          "type": "address"
        },
        {
          "indexed": false,
          "internalType": "uint256",
          "name": "timestamp",
          "type": "uint256"
        }
      ],
      "name": "LongVaultCreated",
      "type": "event"
    },
    {
      "inputs": [
        {
          "internalType": "uint256",
          "name": "",
          "type": "uint256"
        }
      ],
      "name": "allLongVaults",
      "outputs": [
        {
          "internalType": "address",
          "name": "admin",
          "type": "address"
        },
        {
          "internalType": "address",
          "name": "beneficiary",
          "type": "address"
        },
        {
          "internalType": "address",
          "name": "cloneAddress",
          "type": "address"
        },
        {
          "internalType": "uint256",
          "name": "timestamp",
          "type": "uint256"
        }
      ],
      "stateMutability": "view",
      "type": "function"
    },
    {
      "inputs": [
        {
          "internalType": "address payable",
          "name": "beneficiary_",
          "type": "address"
        },
        {
          "internalType": "bytes20",
          "name": "salt_",
          "type": "bytes20"
        }
      ],
      "name": "createLongVault",
      "outputs": [
        {
          "internalType": "address payable",
          "name": "longVaultClone",
          "type": "address"
        }
      ],
      "stateMutability": "nonpayable",
      "type": "function"
    },
    {
      "inputs": [],
      "name": "getAllLongVaults",
      "outputs": [
        {
          "components": [
            {
              "internalType": "address",
              "name": "admin",
              "type": "address"
            },
            {
              "internalType": "address",
              "name": "beneficiary",
              "type": "address"
            },
            {
              "internalType": "address",
              "name": "cloneAddress",
              "type": "address"
            },
            {
              "internalType": "uint256",
              "name": "timestamp",
              "type": "uint256"
            }
          ],
          "internalType": "struct LongVaultFactory.LongVaultsEntry[]",
          "name": "",
          "type": "tuple[]"
        }
      ],
      "stateMutability": "view",
      "type": "function"
    },
    {
      "inputs": [],
      "name": "getImplementationBeneficiary",
      "outputs": [
        {
          "internalType": "address",
          "name": "",
          "type": "address"
        }
      ],
      "stateMutability": "view",
      "type": "function"
    },
    {
      "inputs": [],
      "name": "getLongVaultImplementation",
      "outputs": [
        {
          "internalType": "address",
          "name": "",
          "type": "address"
        }
      ],
      "stateMutability": "view",
      "type": "function"
    }
  ],
  "bytecode": "0x608060405234801561001057600080fd5b5060405161066f38038061066f83398101604081905261002f9161005d565b600080546001600160a01b039092166001600160a01b0319928316179055600180549091163317905561008d565b60006020828403121561006f57600080fd5b81516001600160a01b038116811461008657600080fd5b9392505050565b6105d38061009c6000396000f3fe608060405234801561001057600080fd5b50600436106100575760003560e01c806312a0c9a31461005c578063ad8f242a14610086578063c84133ea14610097578063d0a50207146100df578063d432f0cb146100f4575b600080fd5b6001546001600160a01b03165b6040516001600160a01b0390911681526020015b60405180910390f35b6000546001600160a01b0316610069565b6100aa6100a5366004610512565b610107565b60405161007d94939291906001600160a01b039485168152928416602084015292166040820152606081019190915260800190565b6100e7610151565b60405161007d919061052b565b6100696101023660046104bb565b6101e2565b6002818154811061011757600080fd5b600091825260209091206004909102018054600182015460028301546003909301546001600160a01b039283169450908216929091169084565b60606002805480602002602001604051908101604052809291908181526020016000905b828210156101d9576000848152602090819020604080516080810182526004860290920180546001600160a01b0390811684526001808301548216858701526002830154909116928401929092526003015460608301529083529092019101610175565b50505050905090565b6040516bffffffffffffffffffffffff19808316602083015233606081811b8316603485015285901b90911660488301526000918290605c0160408051601f19818403018152919052805160209091012060005490915061024c906001600160a01b031682610417565b60405163485cc95560e01b81526001600160a01b03848116600483015287811660248301529194509084169063485cc95590604401600060405180830381600087803b15801561029b57600080fd5b505af11580156102af573d6000803e3d6000fd5b505060408051608080820183526001600160a01b038781168084528b821660208086018281528c8516878901818152426060808b01828152600280546001810182556000919091529b516004909c027f405787fa12a823e0f2b7631cc41b3ba8828b3321ca811111fa75cd3aa3bb5ace810180549d8c166001600160a01b03199e8f1617905595517f405787fa12a823e0f2b7631cc41b3ba8828b3321ca811111fa75cd3aa3bb5acf87018054918c16918e1691909117905592517f405787fa12a823e0f2b7631cc41b3ba8828b3321ca811111fa75cd3aa3bb5ad08601805491909a169b169a909a17909755517f405787fa12a823e0f2b7631cc41b3ba8828b3321ca811111fa75cd3aa3bb5ad190920191909155875193845290830191909152948101949094529183018290529093507f9d97c3da40433872c3b272041498977643ebe1e05370ca2699720cfb126104af92500160405180910390a15050505b92915050565b6000604051733d602d80600a3d3981f3363d3d373d3d3d363d7360601b81528360601b60148201526e5af43d82803e903d91602b57fd5bf360881b6028820152826037826000f59150506001600160a01b0381166104115760405162461bcd60e51b815260206004820152601760248201527f455243313136373a2063726561746532206661696c6564000000000000000000604482015260640160405180910390fd5b600080604083850312156104ce57600080fd5b82356001600160a01b03811681146104e557600080fd5b915060208301356bffffffffffffffffffffffff198116811461050757600080fd5b809150509250929050565b60006020828403121561052457600080fd5b5035919050565b602080825282518282018190526000919060409081850190868401855b8281101561059057815180516001600160a01b039081168652878201518116888701528682015116868601526060908101519085015260809093019290850190600101610548565b509197965050505050505056fea2646970667358221220fd4573109197c810395c39f6cbe214eb72df5815b4f6f7a6fac6ef610ba39e5c64736f6c63430008060033",
  "linkReferences": {},
  "deployedLinkReferences": {}
}