{
  "_format": "hh-sol-artifact-1",
  "contractName": "LongVault",
  "sourceName": "contracts/LongVault.sol",
  "abi": [
    {
      "anonymous": false,
      "inputs": [
        {
          "indexed": false,
          "internalType": "uint256",
          "name": "amount",
          "type": "uint256"
        },
        {
          "indexed": false,
          "internalType": "uint256",
          "name": "timestamp",
          "type": "uint256"
        }
      ],
      "name": "EtherDeposited",
      "type": "event"
    },
    {
      "anonymous": false,
      "inputs": [
        {
          "indexed": false,
          "internalType": "uint256",
          "name": "amount",
          "type": "uint256"
        },
        {
          "indexed": false,
          "internalType": "uint256",
          "name": "releaseTime",
          "type": "uint256"
        }
      ],
      "name": "EtherReleaseCreated",
      "type": "event"
    },
    {
      "anonymous": false,
      "inputs": [
        {
          "indexed": false,
          "internalType": "uint256",
          "name": "amount",
          "type": "uint256"
        },
        {
          "indexed": false,
          "internalType": "uint256",
          "name": "releaseTime",
          "type": "uint256"
        }
      ],
      "name": "EtherReleased",
      "type": "event"
    },
    {
      "anonymous": false,
      "inputs": [
        {
          "indexed": true,
          "internalType": "bytes32",
          "name": "role",
          "type": "bytes32"
        },
        {
          "indexed": true,
          "internalType": "bytes32",
          "name": "previousAdminRole",
          "type": "bytes32"
        },
        {
          "indexed": true,
          "internalType": "bytes32",
          "name": "newAdminRole",
          "type": "bytes32"
        }
      ],
      "name": "RoleAdminChanged",
      "type": "event"
    },
    {
      "anonymous": false,
      "inputs": [
        {
          "indexed": true,
          "internalType": "bytes32",
          "name": "role",
          "type": "bytes32"
        },
        {
          "indexed": true,
          "internalType": "address",
          "name": "account",
          "type": "address"
        },
        {
          "indexed": true,
          "internalType": "address",
          "name": "sender",
          "type": "address"
        }
      ],
      "name": "RoleGranted",
      "type": "event"
    },
    {
      "anonymous": false,
      "inputs": [
        {
          "indexed": true,
          "internalType": "bytes32",
          "name": "role",
          "type": "bytes32"
        },
        {
          "indexed": true,
          "internalType": "address",
          "name": "account",
          "type": "address"
        },
        {
          "indexed": true,
          "internalType": "address",
          "name": "sender",
          "type": "address"
        }
      ],
      "name": "RoleRevoked",
      "type": "event"
    },
    {
      "anonymous": false,
      "inputs": [
        {
          "indexed": false,
          "internalType": "address",
          "name": "token",
          "type": "address"
        },
        {
          "indexed": false,
          "internalType": "uint256",
          "name": "amount",
          "type": "uint256"
        },
        {
          "indexed": false,
          "internalType": "uint256",
          "name": "timestamp",
          "type": "uint256"
        }
      ],
      "name": "TokenDeposited",
      "type": "event"
    },
    {
      "anonymous": false,
      "inputs": [
        {
          "indexed": false,
          "internalType": "address",
          "name": "token",
          "type": "address"
        },
        {
          "indexed": false,
          "internalType": "uint256",
          "name": "amount",
          "type": "uint256"
        },
        {
          "indexed": false,
          "internalType": "uint256",
          "name": "releaseTime",
          "type": "uint256"
        }
      ],
      "name": "TokenReleaseCreated",
      "type": "event"
    },
    {
      "anonymous": false,
      "inputs": [
        {
          "indexed": false,
          "internalType": "address",
          "name": "token",
          "type": "address"
        },
        {
          "indexed": false,
          "internalType": "uint256",
          "name": "amount",
          "type": "uint256"
        },
        {
          "indexed": false,
          "internalType": "uint256",
          "name": "releaseTime",
          "type": "uint256"
        }
      ],
      "name": "TokenReleased",
      "type": "event"
    },
    {
      "stateMutability": "payable",
      "type": "fallback"
    },
    {
      "inputs": [],
      "name": "BENEFICIARY_ROLE",
      "outputs": [
        {
          "internalType": "bytes32",
          "name": "",
          "type": "bytes32"
        }
      ],
      "stateMutability": "view",
      "type": "function"
    },
    {
      "inputs": [],
      "name": "DEFAULT_ADMIN_ROLE",
      "outputs": [
        {
          "internalType": "bytes32",
          "name": "",
          "type": "bytes32"
        }
      ],
      "stateMutability": "view",
      "type": "function"
    },
    {
      "inputs": [],
      "name": "admin",
      "outputs": [
        {
          "internalType": "address payable",
          "name": "",
          "type": "address"
        }
      ],
      "stateMutability": "view",
      "type": "function"
    },
    {
      "inputs": [],
      "name": "beneficiary",
      "outputs": [
        {
          "internalType": "address payable",
          "name": "",
          "type": "address"
        }
      ],
      "stateMutability": "view",
      "type": "function"
    },
    {
      "inputs": [
        {
          "internalType": "uint256",
          "name": "amount_",
          "type": "uint256"
        },
        {
          "internalType": "uint256",
          "name": "releaseTime_",
          "type": "uint256"
        },
        {
          "internalType": "bool",
          "name": "repeated_",
          "type": "bool"
        },
        {
          "internalType": "uint256",
          "name": "frequency_",
          "type": "uint256"
        }
      ],
      "name": "createEtherRelease",
      "outputs": [],
      "stateMutability": "nonpayable",
      "type": "function"
    },
    {
      "inputs": [
        {
          "internalType": "address",
          "name": "token_",
          "type": "address"
        },
        {
          "internalType": "uint256",
          "name": "amount_",
          "type": "uint256"
        },
        {
          "internalType": "uint256",
          "name": "releaseTime_",
          "type": "uint256"
        },
        {
          "internalType": "bool",
          "name": "repeated_",
          "type": "bool"
        },
        {
          "internalType": "uint256",
          "name": "frequency_",
          "type": "uint256"
        }
      ],
      "name": "createTokenRelease",
      "outputs": [],
      "stateMutability": "nonpayable",
      "type": "function"
    },
    {
      "inputs": [],
      "name": "createdTimestamp",
      "outputs": [
        {
          "internalType": "uint256",
          "name": "",
          "type": "uint256"
        }
      ],
      "stateMutability": "view",
      "type": "function"
    },
    {
      "inputs": [],
      "name": "deposit",
      "outputs": [],
      "stateMutability": "payable",
      "type": "function"
    },
    {
      "inputs": [
        {
          "internalType": "address",
          "name": "token_",
          "type": "address"
        },
        {
          "internalType": "uint256",
          "name": "amount_",
          "type": "uint256"
        }
      ],
      "name": "depositToken",
      "outputs": [],
      "stateMutability": "payable",
      "type": "function"
    },
    {
      "inputs": [],
      "name": "etherReleaseCount",
      "outputs": [
        {
          "internalType": "uint256",
          "name": "",
          "type": "uint256"
        }
      ],
      "stateMutability": "view",
      "type": "function"
    },
    {
      "inputs": [
        {
          "internalType": "uint256",
          "name": "",
          "type": "uint256"
        }
      ],
      "name": "etherReleases",
      "outputs": [
        {
          "internalType": "uint256",
          "name": "id",
          "type": "uint256"
        },
        {
          "internalType": "uint256",
          "name": "amount",
          "type": "uint256"
        },
        {
          "internalType": "uint256",
          "name": "createdTime",
          "type": "uint256"
        },
        {
          "internalType": "uint256",
          "name": "releaseTime",
          "type": "uint256"
        },
        {
          "internalType": "bool",
          "name": "released",
          "type": "bool"
        },
        {
          "internalType": "bool",
          "name": "repeated",
          "type": "bool"
        },
        {
          "internalType": "uint256",
          "name": "frequency",
          "type": "uint256"
        }
      ],
      "stateMutability": "view",
      "type": "function"
    },
    {
      "inputs": [],
      "name": "getEtherBalance",
      "outputs": [
        {
          "internalType": "uint256",
          "name": "",
          "type": "uint256"
        }
      ],
      "stateMutability": "view",
      "type": "function"
    },
    {
      "inputs": [],
      "name": "getEtherReleases",
      "outputs": [
        {
          "components": [
            {
              "internalType": "uint256",
              "name": "id",
              "type": "uint256"
            },
            {
              "internalType": "uint256",
              "name": "amount",
              "type": "uint256"
            },
            {
              "internalType": "uint256",
              "name": "createdTime",
              "type": "uint256"
            },
            {
              "internalType": "uint256",
              "name": "releaseTime",
              "type": "uint256"
            },
            {
              "internalType": "bool",
              "name": "released",
              "type": "bool"
            },
            {
              "internalType": "bool",
              "name": "repeated",
              "type": "bool"
            },
            {
              "internalType": "uint256",
              "name": "frequency",
              "type": "uint256"
            }
          ],
          "internalType": "struct LongVault.EtherRelease[]",
          "name": "",
          "type": "tuple[]"
        }
      ],
      "stateMutability": "view",
      "type": "function"
    },
    {
      "inputs": [
        {
          "internalType": "bytes32",
          "name": "role",
          "type": "bytes32"
        }
      ],
      "name": "getRoleAdmin",
      "outputs": [
        {
          "internalType": "bytes32",
          "name": "",
          "type": "bytes32"
        }
      ],
      "stateMutability": "view",
      "type": "function"
    },
    {
      "inputs": [
        {
          "internalType": "address",
          "name": "token_",
          "type": "address"
        }
      ],
      "name": "getTokenBalance",
      "outputs": [
        {
          "internalType": "uint256",
          "name": "",
          "type": "uint256"
        }
      ],
      "stateMutability": "view",
      "type": "function"
    },
    {
      "inputs": [],
      "name": "getTokenReleases",
      "outputs": [
        {
          "components": [
            {
              "internalType": "address",
              "name": "token",
              "type": "address"
            },
            {
              "internalType": "uint256",
              "name": "id",
              "type": "uint256"
            },
            {
              "internalType": "uint256",
              "name": "amount",
              "type": "uint256"
            },
            {
              "internalType": "uint256",
              "name": "createdTime",
              "type": "uint256"
            },
            {
              "internalType": "uint256",
              "name": "releaseTime",
              "type": "uint256"
            },
            {
              "internalType": "bool",
              "name": "released",
              "type": "bool"
            },
            {
              "internalType": "bool",
              "name": "repeated",
              "type": "bool"
            },
            {
              "internalType": "uint256",
              "name": "frequency",
              "type": "uint256"
            }
          ],
          "internalType": "struct LongVault.TokenRelease[]",
          "name": "",
          "type": "tuple[]"
        }
      ],
      "stateMutability": "view",
      "type": "function"
    },
    {
      "inputs": [
        {
          "internalType": "bytes32",
          "name": "role",
          "type": "bytes32"
        },
        {
          "internalType": "address",
          "name": "account",
          "type": "address"
        }
      ],
      "name": "grantRole",
      "outputs": [],
      "stateMutability": "nonpayable",
      "type": "function"
    },
    {
      "inputs": [
        {
          "internalType": "bytes32",
          "name": "role",
          "type": "bytes32"
        },
        {
          "internalType": "address",
          "name": "account",
          "type": "address"
        }
      ],
      "name": "hasRole",
      "outputs": [
        {
          "internalType": "bool",
          "name": "",
          "type": "bool"
        }
      ],
      "stateMutability": "view",
      "type": "function"
    },
    {
      "inputs": [
        {
          "internalType": "address payable",
          "name": "admin_",
          "type": "address"
        },
        {
          "internalType": "address payable",
          "name": "beneficiary_",
          "type": "address"
        }
      ],
      "name": "initialize",
      "outputs": [],
      "stateMutability": "nonpayable",
      "type": "function"
    },
    {
      "inputs": [
        {
          "internalType": "uint256",
          "name": "amount_",
          "type": "uint256"
        }
      ],
      "name": "releaseEther",
      "outputs": [],
      "stateMutability": "nonpayable",
      "type": "function"
    },
    {
      "inputs": [
        {
          "internalType": "address",
          "name": "token_",
          "type": "address"
        },
        {
          "internalType": "uint256",
          "name": "amount_",
          "type": "uint256"
        }
      ],
      "name": "releaseToken",
      "outputs": [],
      "stateMutability": "nonpayable",
      "type": "function"
    },
    {
      "inputs": [
        {
          "internalType": "bytes32",
          "name": "role",
          "type": "bytes32"
        },
        {
          "internalType": "address",
          "name": "account",
          "type": "address"
        }
      ],
      "name": "renounceRole",
      "outputs": [],
      "stateMutability": "nonpayable",
      "type": "function"
    },
    {
      "inputs": [
        {
          "internalType": "bytes32",
          "name": "role",
          "type": "bytes32"
        },
        {
          "internalType": "address",
          "name": "account",
          "type": "address"
        }
      ],
      "name": "revokeRole",
      "outputs": [],
      "stateMutability": "nonpayable",
      "type": "function"
    },
    {
      "inputs": [
        {
          "internalType": "bytes4",
          "name": "interfaceId",
          "type": "bytes4"
        }
      ],
      "name": "supportsInterface",
      "outputs": [
        {
          "internalType": "bool",
          "name": "",
          "type": "bool"
        }
      ],
      "stateMutability": "view",
      "type": "function"
    },
    {
      "inputs": [
        {
          "internalType": "address",
          "name": "token_",
          "type": "address"
        }
      ],
      "name": "token",
      "outputs": [
        {
          "internalType": "contract IERC20",
          "name": "",
          "type": "address"
        }
      ],
      "stateMutability": "view",
      "type": "function"
    },
    {
      "inputs": [],
      "name": "tokenReleaseCount",
      "outputs": [
        {
          "internalType": "uint256",
          "name": "",
          "type": "uint256"
        }
      ],
      "stateMutability": "view",
      "type": "function"
    },
    {
      "inputs": [
        {
          "internalType": "uint256",
          "name": "",
          "type": "uint256"
        }
      ],
      "name": "tokenReleases",
      "outputs": [
        {
          "internalType": "address",
          "name": "token",
          "type": "address"
        },
        {
          "internalType": "uint256",
          "name": "id",
          "type": "uint256"
        },
        {
          "internalType": "uint256",
          "name": "amount",
          "type": "uint256"
        },
        {
          "internalType": "uint256",
          "name": "createdTime",
          "type": "uint256"
        },
        {
          "internalType": "uint256",
          "name": "releaseTime",
          "type": "uint256"
        },
        {
          "internalType": "bool",
          "name": "released",
          "type": "bool"
        },
        {
          "internalType": "bool",
          "name": "repeated",
          "type": "bool"
        },
        {
          "internalType": "uint256",
          "name": "frequency",
          "type": "uint256"
        }
      ],
      "stateMutability": "view",
      "type": "function"
    },
    {
      "stateMutability": "payable",
      "type": "receive"
    }
  ],
  "bytecode": "0x608060405234801561001057600080fd5b50611fa0806100206000396000f3fe6080604052600436106101a05760003560e01c806353edd8f7116100ec578063a50041471161008a578063d547741f11610064578063d547741f1461058c578063d73bb3d0146105ac578063ea46193e146105cc578063f851a440146105df576101e0565b8063a500414714610530578063ced3a40314610550578063d0e30db014610584576101e0565b806376423ffe116100c657806376423ffe146104b9578063791b274d146104d957806391d14854146104fb578063a217fddf1461051b576101e0565b806353edd8f7146104595780636d46a1db146104795780636fea6e0e14610497576101e0565b806338af3eed1161015957806343f5cb011161013357806343f5cb011461036157806348011265146103ba578063485cc9551461042357806352ae501014610443576101e0565b806338af3eed146102f35780633aecd0e31461032b5780633d540fcf1461034b576101e0565b806301ffc9a714610215578063103097811461024a578063248a9ca31461026e5780632f2ff15d1461029e578063338b5dea146102c057806336568abe146102d3576101e0565b366101e057604080513481524260208201527f18183bd3aa556652feefc325dafea12974161791bd8550e8c48e2c8fff48e9f591015b60405180910390a1005b604080513481524260208201527f18183bd3aa556652feefc325dafea12974161791bd8550e8c48e2c8fff48e9f591016101d6565b34801561022157600080fd5b50610235610230366004611bc6565b6105ff565b60405190151581526020015b60405180910390f35b34801561025657600080fd5b5061026060065481565b604051908152602001610241565b34801561027a57600080fd5b50610260610289366004611b88565b60009081526020819052604090206001015490565b3480156102aa57600080fd5b506102be6102b9366004611ba1565b610636565b005b6102be6102ce366004611aed565b610661565b3480156102df57600080fd5b506102be6102ee366004611ba1565b6107d9565b3480156102ff57600080fd5b50600554610313906001600160a01b031681565b6040516001600160a01b039091168152602001610241565b34801561033757600080fd5b50610260610346366004611a97565b610857565b34801561035757600080fd5b5061026060075481565b34801561036d57600080fd5b5061038161037c366004611b88565b6108d3565b60408051978852602088019690965294860193909352606085019190915215156080840152151560a083015260c082015260e001610241565b3480156103c657600080fd5b506103da6103d5366004611b88565b610926565b604080516001600160a01b03909916895260208901979097529587019490945260608601929092526080850152151560a0840152151560c083015260e082015261010001610241565b34801561042f57600080fd5b506102be61043e366004611ab4565b61098c565b34801561044f57600080fd5b5061026060085481565b34801561046557600080fd5b506102be610474366004611aed565b610aaf565b34801561048557600080fd5b50610313610494366004611a97565b90565b3480156104a357600080fd5b506104ac610c37565b6040516102419190611d5f565b3480156104c557600080fd5b506102be6104d4366004611b19565b610cf7565b3480156104e557600080fd5b506104ee610f2d565b6040516102419190611cd9565b34801561050757600080fd5b50610235610516366004611ba1565b610fce565b34801561052757600080fd5b50610260600081565b34801561053c57600080fd5b506102be61054b366004611c09565b610ff7565b34801561055c57600080fd5b506102607fc8a41221bcd7fcf2c225f5a9265e1d4d39949d89197159d59e5f4b87b62c419e81565b6102be6111c7565b34801561059857600080fd5b506102be6105a7366004611ba1565b61120e565b3480156105b857600080fd5b506102be6105c7366004611b88565b611234565b3480156105d857600080fd5b5047610260565b3480156105eb57600080fd5b50600454610313906001600160a01b031681565b60006001600160e01b03198216637965db0b60e01b148061063057506301ffc9a760e01b6001600160e01b03198316145b92915050565b6000828152602081905260409020600101546106528133611308565b61065c838361136c565b505050565b600061066d8133611308565b6004548390610689906001600160a01b038084169116856113f0565b6004546106a4906001600160a01b03838116911630866114ea565b6040516370a0823160e01b815230600482015283906001600160a01b038316906370a082319060240160206040518083038186803b1580156106e557600080fd5b505afa1580156106f9573d6000803e3d6000fd5b505050506040513d601f19601f8201168201806040525081019061071d9190611bf0565b101561078b5760405162461bcd60e51b815260206004820152603260248201527f4c6f6e675661756c743a20746f6b656e73206d757374206265206465706f73696044820152711d1959081a5b9d1bc81d1a19481d985d5b1d60721b60648201526084015b60405180910390fd5b604080516001600160a01b038616815260208101859052428183015290517f1c83e520720711a18cf486e7e5a403bad3f020deb71d3326a4bbf507260e365f9181900360600190a150505050565b6001600160a01b03811633146108495760405162461bcd60e51b815260206004820152602f60248201527f416363657373436f6e74726f6c3a2063616e206f6e6c792072656e6f756e636560448201526e103937b632b9903337b91039b2b63360891b6064820152608401610782565b6108538282611522565b5050565b6000816040516370a0823160e01b81523060048201526001600160a01b0391909116906370a082319060240160206040518083038186803b15801561089b57600080fd5b505afa1580156108af573d6000803e3d6000fd5b505050506040513d601f19601f820116820180604052508101906106309190611bf0565b600281815481106108e357600080fd5b60009182526020909120600690910201805460018201546002830154600384015460048501546005909501549395509193909260ff808316926101009004169087565b6003818154811061093657600080fd5b600091825260209091206007909102018054600182015460028301546003840154600485015460058601546006909601546001600160a01b0390951696509294919390929160ff80821692610100909204169088565b600154610100900460ff166109a75760015460ff16156109ab565b303b155b610a0e5760405162461bcd60e51b815260206004820152602e60248201527f496e697469616c697a61626c653a20636f6e747261637420697320616c72656160448201526d191e481a5b9a5d1a585b1a5e995960921b6064820152608401610782565b600154610100900460ff16158015610a30576001805461ffff19166101011790555b610a3b600084611587565b610a657fc8a41221bcd7fcf2c225f5a9265e1d4d39949d89197159d59e5f4b87b62c419e83611587565b600480546001600160a01b038086166001600160a01b031992831617909255600580549285169290911691909117905542600655801561065c576001805461ff0019169055505050565b6000610abb8133611308565b6000836040516370a0823160e01b81523060048201529091506000906001600160a01b038316906370a082319060240160206040518083038186803b158015610b0357600080fd5b505afa158015610b17573d6000803e3d6000fd5b505050506040513d601f19601f82011682018060405250810190610b3b9190611bf0565b905083811015610bb35760405162461bcd60e51b815260206004820152603d60248201527f4c6f6e675661756c743a20746f6b656e2072656c6561736520616d6f756e742060448201527f69732067726561746572207468616e20746f6b656e2062616c616e63650000006064820152608401610782565b610bc76001600160a01b03831630866113f0565b600554610be3906001600160a01b0384811691309116876114ea565b604080516001600160a01b03871681526020810186905242918101919091527f881a2e1bf4f161e12580159a60513a536736d190d8f1264819ef4f1b260921d0906060015b60405180910390a15050505050565b60606003805480602002602001604051908101604052809291908181526020016000905b82821015610cee5760008481526020908190206040805161010080820183526007870290930180546001600160a01b03168252600180820154838701526002820154938301939093526003810154606083015260048101546080830152600581015460ff808216151560a0850152949004909316151560c082015260069092015460e08301529083529092019101610c5b565b50505050905090565b6000610d038133611308565b428411610d225760405162461bcd60e51b815260040161078290611e1f565b6040805161010080820183526001600160a01b03898116835260088054602085019081529484018a81524260608601908152608086018b8152600060a088018181528c151560c08a0190815260e08a018d8152600380546001810182559085529a517fc2575a0e9e593c00f959f8c92f12db2869c3395a3b0502d05e2516446f71f85b6007909c029b8c0180546001600160a01b03191691909a161790985599517fc2575a0e9e593c00f959f8c92f12db2869c3395a3b0502d05e2516446f71f85c8a015593517fc2575a0e9e593c00f959f8c92f12db2869c3395a3b0502d05e2516446f71f85d89015591517fc2575a0e9e593c00f959f8c92f12db2869c3395a3b0502d05e2516446f71f85e880155517fc2575a0e9e593c00f959f8c92f12db2869c3395a3b0502d05e2516446f71f85f87015590517fc2575a0e9e593c00f959f8c92f12db2869c3395a3b0502d05e2516446f71f86086018054975161ffff1990981691151561ff0019169190911796151590940295909517909255517fc2575a0e9e593c00f959f8c92f12db2869c3395a3b0502d05e2516446f71f86190920191909155805491610ed683611ee7565b9091555050604080516001600160a01b0388168152602081018790529081018590527f97680783d50b59cc3c9ddbd8abbb12a2395aa089884c141383bfec9a33957ed59060600160405180910390a1505050505050565b60606002805480602002602001604051908101604052809291908181526020016000905b82821015610cee5760008481526020908190206040805160e08101825260068602909201805483526001808201548486015260028201549284019290925260038101546060840152600481015460ff8082161515608086015261010090910416151560a08401526005015460c08301529083529092019101610f51565b6000918252602082815260408084206001600160a01b0393909316845291905290205460ff1690565b60006110038133611308565b4284116110225760405162461bcd60e51b815260040161078290611e1f565b6040805160e08101825260078054825260208201888152429383019384526060830188815260006080850181815289151560a0870190815260c087018a815260028054600181018255908552975160069098027f405787fa12a823e0f2b7631cc41b3ba8828b3321ca811111fa75cd3aa3bb5ace81019890985594517f405787fa12a823e0f2b7631cc41b3ba8828b3321ca811111fa75cd3aa3bb5acf88015596517f405787fa12a823e0f2b7631cc41b3ba8828b3321ca811111fa75cd3aa3bb5ad087015591517f405787fa12a823e0f2b7631cc41b3ba8828b3321ca811111fa75cd3aa3bb5ad186015590517f405787fa12a823e0f2b7631cc41b3ba8828b3321ca811111fa75cd3aa3bb5ad285018054965115156101000261ff00199215159290921661ffff199097169690961717909455517f405787fa12a823e0f2b7631cc41b3ba8828b3321ca811111fa75cd3aa3bb5ad39092019190915580549161118c83611ee7565b909155505060408051868152602081018690527fa3cb4db3a30f54c25084fa2da13f7b3102230d93e15c3bee651ba0173e26492a9101610c28565b60006111d38133611308565b604080513481524260208201527f18183bd3aa556652feefc325dafea12974161791bd8550e8c48e2c8fff48e9f5910160405180910390a150565b60008281526020819052604090206001015461122a8133611308565b61065c8383611522565b60006112408133611308565b814710156112b65760405162461bcd60e51b815260206004820152603d60248201527f4c6f6e675661756c743a2065746865722072656c6561736520616d6f756e742060448201527f69732067726561746572207468616e2065746865722062616c616e63650000006064820152608401610782565b6005546112cc906001600160a01b031683611591565b604080518381524260208201527faf2ffd92e1b6538d2f397a8b6495a3ce155fe40a4d4dc48db4b353312d4b51c8910160405180910390a15050565b6113128282610fce565b6108535761132a816001600160a01b031660146116aa565b6113358360206116aa565b604051602001611346929190611c64565b60408051601f198184030181529082905262461bcd60e51b825261078291600401611dec565b6113768282610fce565b610853576000828152602081815260408083206001600160a01b03851684529091529020805460ff191660011790556113ac3390565b6001600160a01b0316816001600160a01b0316837f2f8788117e7eff1d82e926ec794901d17c78024a50270940304540a733656f0d60405160405180910390a45050565b604051636eb1769f60e11b81523060048201526001600160a01b038381166024830152600091839186169063dd62ed3e9060440160206040518083038186803b15801561143c57600080fd5b505afa158015611450573d6000803e3d6000fd5b505050506040513d601f19601f820116820180604052508101906114749190611bf0565b61147e9190611e6d565b6040516001600160a01b0385166024820152604481018290529091506114e490859063095ea7b360e01b906064015b60408051601f198184030181529190526020810180516001600160e01b03166001600160e01b03199093169290921790915261184d565b50505050565b6040516001600160a01b03808516602483015283166044820152606481018290526114e49085906323b872dd60e01b906084016114ad565b61152c8282610fce565b15610853576000828152602081815260408083206001600160a01b0385168085529252808320805460ff1916905551339285917ff6391f5c32d9c69d2a47ea670b442974b53935d1edc7fd64eb21e047a839171b9190a45050565b610853828261136c565b804710156115e15760405162461bcd60e51b815260206004820152601d60248201527f416464726573733a20696e73756666696369656e742062616c616e63650000006044820152606401610782565b6000826001600160a01b03168260405160006040518083038185875af1925050503d806000811461162e576040519150601f19603f3d011682016040523d82523d6000602084013e611633565b606091505b505090508061065c5760405162461bcd60e51b815260206004820152603a60248201527f416464726573733a20756e61626c6520746f2073656e642076616c75652c207260448201527f6563697069656e74206d617920686176652072657665727465640000000000006064820152608401610782565b606060006116b9836002611e85565b6116c4906002611e6d565b67ffffffffffffffff8111156116dc576116dc611f2e565b6040519080825280601f01601f191660200182016040528015611706576020820181803683370190505b509050600360fc1b8160008151811061172157611721611f18565b60200101906001600160f81b031916908160001a905350600f60fb1b8160018151811061175057611750611f18565b60200101906001600160f81b031916908160001a9053506000611774846002611e85565b61177f906001611e6d565b90505b60018111156117f7576f181899199a1a9b1b9c1cb0b131b232b360811b85600f16601081106117b3576117b3611f18565b1a60f81b8282815181106117c9576117c9611f18565b60200101906001600160f81b031916908160001a90535060049490941c936117f081611ed0565b9050611782565b5083156118465760405162461bcd60e51b815260206004820181905260248201527f537472696e67733a20686578206c656e67746820696e73756666696369656e746044820152606401610782565b9392505050565b60006118a2826040518060400160405280602081526020017f5361666545524332303a206c6f772d6c6576656c2063616c6c206661696c6564815250856001600160a01b031661191f9092919063ffffffff16565b80519091501561065c57808060200190518101906118c09190611b6b565b61065c5760405162461bcd60e51b815260206004820152602a60248201527f5361666545524332303a204552433230206f7065726174696f6e20646964206e6044820152691bdd081cdd58d8d9595960b21b6064820152608401610782565b606061192e8484600085611936565b949350505050565b6060824710156119975760405162461bcd60e51b815260206004820152602660248201527f416464726573733a20696e73756666696369656e742062616c616e636520666f6044820152651c8818d85b1b60d21b6064820152608401610782565b843b6119e55760405162461bcd60e51b815260206004820152601d60248201527f416464726573733a2063616c6c20746f206e6f6e2d636f6e74726163740000006044820152606401610782565b600080866001600160a01b03168587604051611a019190611c48565b60006040518083038185875af1925050503d8060008114611a3e576040519150601f19603f3d011682016040523d82523d6000602084013e611a43565b606091505b5091509150611a53828286611a5e565b979650505050505050565b60608315611a6d575081611846565b825115611a7d5782518084602001fd5b8160405162461bcd60e51b81526004016107829190611dec565b600060208284031215611aa957600080fd5b813561184681611f44565b60008060408385031215611ac757600080fd5b8235611ad281611f44565b91506020830135611ae281611f44565b809150509250929050565b60008060408385031215611b0057600080fd5b8235611b0b81611f44565b946020939093013593505050565b600080600080600060a08688031215611b3157600080fd5b8535611b3c81611f44565b945060208601359350604086013592506060860135611b5a81611f5c565b949793965091946080013592915050565b600060208284031215611b7d57600080fd5b815161184681611f5c565b600060208284031215611b9a57600080fd5b5035919050565b60008060408385031215611bb457600080fd5b823591506020830135611ae281611f44565b600060208284031215611bd857600080fd5b81356001600160e01b03198116811461184657600080fd5b600060208284031215611c0257600080fd5b5051919050565b60008060008060808587031215611c1f57600080fd5b84359350602085013592506040850135611c3881611f5c565b9396929550929360600135925050565b60008251611c5a818460208701611ea4565b9190910192915050565b7f416363657373436f6e74726f6c3a206163636f756e7420000000000000000000815260008351611c9c816017850160208801611ea4565b7001034b99036b4b9b9b4b733903937b6329607d1b6017918401918201528351611ccd816028840160208801611ea4565b01602801949350505050565b602080825282518282018190526000919060409081850190868401855b82811015611d5257815180518552868101518786015285810151868601526060808201519086015260808082015115159086015260a08082015115159086015260c0908101519085015260e09093019290850190600101611cf6565b5091979650505050505050565b602080825282518282018190526000919060409081850190868401855b82811015611d5257815180516001600160a01b0316855286810151878601528581015186860152606080820151908601526080808201519086015260a08082015115159086015260c08082015115159086015260e090810151908501526101009093019290850190600101611d7c565b6020815260008251806020840152611e0b816040850160208701611ea4565b601f01601f19169190910160400192915050565b6020808252602e908201527f4c6f6e675661756c743a2072656c656173652074696d65206973206265666f7260408201526d652063757272656e742074696d6560901b606082015260800190565b60008219821115611e8057611e80611f02565b500190565b6000816000190483118215151615611e9f57611e9f611f02565b500290565b60005b83811015611ebf578181015183820152602001611ea7565b838111156114e45750506000910152565b600081611edf57611edf611f02565b506000190190565b6000600019821415611efb57611efb611f02565b5060010190565b634e487b7160e01b600052601160045260246000fd5b634e487b7160e01b600052603260045260246000fd5b634e487b7160e01b600052604160045260246000fd5b6001600160a01b0381168114611f5957600080fd5b50565b8015158114611f5957600080fdfea2646970667358221220173bc255b38f5d2bca74726662e6cd4933ed7a9564781601a34f38ce1141aa2c64736f6c63430008060033",
  "linkReferences": {},
  "deployedLinkReferences": {}
}