{
  "_format": "hh-sol-artifact-1",
  "contractName": "LongVaultTokens",
  "sourceName": "contracts/LongVaultTokens.sol",
  "abi": [
    {
      "inputs": [
        {
          "internalType": "address payable",
          "name": "beneficiary_",
          "type": "address"
        }
      ],
      "stateMutability": "nonpayable",
      "type": "constructor"
    },
    {
      "anonymous": false,
      "inputs": [
        {
          "indexed": true,
          "internalType": "address",
          "name": "account",
          "type": "address"
        },
        {
          "indexed": true,
          "internalType": "address",
          "name": "operator",
          "type": "address"
        },
        {
          "indexed": false,
          "internalType": "bool",
          "name": "approved",
          "type": "bool"
        }
      ],
      "name": "ApprovalForAll",
      "type": "event"
    },
    {
      "anonymous": false,
      "inputs": [
        {
          "indexed": true,
          "internalType": "bytes32",
          "name": "role",
          "type": "bytes32"
        },
        {
          "indexed": true,
          "internalType": "bytes32",
          "name": "previousAdminRole",
          "type": "bytes32"
        },
        {
          "indexed": true,
          "internalType": "bytes32",
          "name": "newAdminRole",
          "type": "bytes32"
        }
      ],
      "name": "RoleAdminChanged",
      "type": "event"
    },
    {
      "anonymous": false,
      "inputs": [
        {
          "indexed": true,
          "internalType": "bytes32",
          "name": "role",
          "type": "bytes32"
        },
        {
          "indexed": true,
          "internalType": "address",
          "name": "account",
          "type": "address"
        },
        {
          "indexed": true,
          "internalType": "address",
          "name": "sender",
          "type": "address"
        }
      ],
      "name": "RoleGranted",
      "type": "event"
    },
    {
      "anonymous": false,
      "inputs": [
        {
          "indexed": true,
          "internalType": "bytes32",
          "name": "role",
          "type": "bytes32"
        },
        {
          "indexed": true,
          "internalType": "address",
          "name": "account",
          "type": "address"
        },
        {
          "indexed": true,
          "internalType": "address",
          "name": "sender",
          "type": "address"
        }
      ],
      "name": "RoleRevoked",
      "type": "event"
    },
    {
      "anonymous": false,
      "inputs": [
        {
          "indexed": false,
          "internalType": "uint256",
          "name": "id",
          "type": "uint256"
        },
        {
          "indexed": false,
          "internalType": "uint256",
          "name": "amount",
          "type": "uint256"
        },
        {
          "indexed": false,
          "internalType": "uint256",
          "name": "timestamp",
          "type": "uint256"
        }
      ],
      "name": "TokensDeposited",
      "type": "event"
    },
    {
      "anonymous": false,
      "inputs": [
        {
          "indexed": false,
          "internalType": "uint256",
          "name": "id",
          "type": "uint256"
        },
        {
          "indexed": false,
          "internalType": "uint256",
          "name": "amount",
          "type": "uint256"
        },
        {
          "indexed": false,
          "internalType": "uint256",
          "name": "timestamp",
          "type": "uint256"
        }
      ],
      "name": "TokensReleased",
      "type": "event"
    },
    {
      "anonymous": false,
      "inputs": [
        {
          "indexed": true,
          "internalType": "address",
          "name": "operator",
          "type": "address"
        },
        {
          "indexed": true,
          "internalType": "address",
          "name": "from",
          "type": "address"
        },
        {
          "indexed": true,
          "internalType": "address",
          "name": "to",
          "type": "address"
        },
        {
          "indexed": false,
          "internalType": "uint256[]",
          "name": "ids",
          "type": "uint256[]"
        },
        {
          "indexed": false,
          "internalType": "uint256[]",
          "name": "values",
          "type": "uint256[]"
        }
      ],
      "name": "TransferBatch",
      "type": "event"
    },
    {
      "anonymous": false,
      "inputs": [
        {
          "indexed": true,
          "internalType": "address",
          "name": "operator",
          "type": "address"
        },
        {
          "indexed": true,
          "internalType": "address",
          "name": "from",
          "type": "address"
        },
        {
          "indexed": true,
          "internalType": "address",
          "name": "to",
          "type": "address"
        },
        {
          "indexed": false,
          "internalType": "uint256",
          "name": "id",
          "type": "uint256"
        },
        {
          "indexed": false,
          "internalType": "uint256",
          "name": "value",
          "type": "uint256"
        }
      ],
      "name": "TransferSingle",
      "type": "event"
    },
    {
      "anonymous": false,
      "inputs": [
        {
          "indexed": false,
          "internalType": "string",
          "name": "value",
          "type": "string"
        },
        {
          "indexed": true,
          "internalType": "uint256",
          "name": "id",
          "type": "uint256"
        }
      ],
      "name": "URI",
      "type": "event"
    },
    {
      "inputs": [],
      "name": "BENEFICIARY_ROLE",
      "outputs": [
        {
          "internalType": "bytes32",
          "name": "",
          "type": "bytes32"
        }
      ],
      "stateMutability": "view",
      "type": "function"
    },
    {
      "inputs": [],
      "name": "DEFAULT_ADMIN_ROLE",
      "outputs": [
        {
          "internalType": "bytes32",
          "name": "",
          "type": "bytes32"
        }
      ],
      "stateMutability": "view",
      "type": "function"
    },
    {
      "inputs": [],
      "name": "MINTER_ROLE",
      "outputs": [
        {
          "internalType": "bytes32",
          "name": "",
          "type": "bytes32"
        }
      ],
      "stateMutability": "view",
      "type": "function"
    },
    {
      "inputs": [],
      "name": "admin",
      "outputs": [
        {
          "internalType": "address",
          "name": "",
          "type": "address"
        }
      ],
      "stateMutability": "view",
      "type": "function"
    },
    {
      "inputs": [
        {
          "internalType": "address",
          "name": "account",
          "type": "address"
        },
        {
          "internalType": "uint256",
          "name": "id",
          "type": "uint256"
        }
      ],
      "name": "balanceOf",
      "outputs": [
        {
          "internalType": "uint256",
          "name": "",
          "type": "uint256"
        }
      ],
      "stateMutability": "view",
      "type": "function"
    },
    {
      "inputs": [
        {
          "internalType": "address[]",
          "name": "accounts",
          "type": "address[]"
        },
        {
          "internalType": "uint256[]",
          "name": "ids",
          "type": "uint256[]"
        }
      ],
      "name": "balanceOfBatch",
      "outputs": [
        {
          "internalType": "uint256[]",
          "name": "",
          "type": "uint256[]"
        }
      ],
      "stateMutability": "view",
      "type": "function"
    },
    {
      "inputs": [],
      "name": "beneficiary",
      "outputs": [
        {
          "internalType": "address payable",
          "name": "",
          "type": "address"
        }
      ],
      "stateMutability": "view",
      "type": "function"
    },
    {
      "inputs": [
        {
          "internalType": "uint256",
          "name": "tokenId_",
          "type": "uint256"
        },
        {
          "internalType": "uint256",
          "name": "amount_",
          "type": "uint256"
        }
      ],
      "name": "deposit",
      "outputs": [],
      "stateMutability": "payable",
      "type": "function"
    },
    {
      "inputs": [
        {
          "internalType": "bytes32",
          "name": "role",
          "type": "bytes32"
        }
      ],
      "name": "getRoleAdmin",
      "outputs": [
        {
          "internalType": "bytes32",
          "name": "",
          "type": "bytes32"
        }
      ],
      "stateMutability": "view",
      "type": "function"
    },
    {
      "inputs": [
        {
          "internalType": "bytes32",
          "name": "role",
          "type": "bytes32"
        },
        {
          "internalType": "address",
          "name": "account",
          "type": "address"
        }
      ],
      "name": "grantRole",
      "outputs": [],
      "stateMutability": "nonpayable",
      "type": "function"
    },
    {
      "inputs": [
        {
          "internalType": "bytes32",
          "name": "role",
          "type": "bytes32"
        },
        {
          "internalType": "address",
          "name": "account",
          "type": "address"
        }
      ],
      "name": "hasRole",
      "outputs": [
        {
          "internalType": "bool",
          "name": "",
          "type": "bool"
        }
      ],
      "stateMutability": "view",
      "type": "function"
    },
    {
      "inputs": [
        {
          "internalType": "address",
          "name": "account",
          "type": "address"
        },
        {
          "internalType": "address",
          "name": "operator",
          "type": "address"
        }
      ],
      "name": "isApprovedForAll",
      "outputs": [
        {
          "internalType": "bool",
          "name": "",
          "type": "bool"
        }
      ],
      "stateMutability": "view",
      "type": "function"
    },
    {
      "inputs": [],
      "name": "lastDepositAmount",
      "outputs": [
        {
          "internalType": "uint256",
          "name": "",
          "type": "uint256"
        }
      ],
      "stateMutability": "view",
      "type": "function"
    },
    {
      "inputs": [],
      "name": "lastDepositDate",
      "outputs": [
        {
          "internalType": "uint256",
          "name": "",
          "type": "uint256"
        }
      ],
      "stateMutability": "view",
      "type": "function"
    },
    {
      "inputs": [],
      "name": "lastDepositTokenId",
      "outputs": [
        {
          "internalType": "uint256",
          "name": "",
          "type": "uint256"
        }
      ],
      "stateMutability": "view",
      "type": "function"
    },
    {
      "inputs": [
        {
          "internalType": "address",
          "name": "account_",
          "type": "address"
        },
        {
          "internalType": "uint256",
          "name": "tokenId_",
          "type": "uint256"
        },
        {
          "internalType": "uint256",
          "name": "amount_",
          "type": "uint256"
        },
        {
          "internalType": "bytes",
          "name": "data_",
          "type": "bytes"
        }
      ],
      "name": "mint",
      "outputs": [],
      "stateMutability": "nonpayable",
      "type": "function"
    },
    {
      "inputs": [
        {
          "internalType": "uint256",
          "name": "tokenId_",
          "type": "uint256"
        },
        {
          "internalType": "uint256",
          "name": "amount_",
          "type": "uint256"
        }
      ],
      "name": "release",
      "outputs": [],
      "stateMutability": "nonpayable",
      "type": "function"
    },
    {
      "inputs": [
        {
          "internalType": "bytes32",
          "name": "role",
          "type": "bytes32"
        },
        {
          "internalType": "address",
          "name": "account",
          "type": "address"
        }
      ],
      "name": "renounceRole",
      "outputs": [],
      "stateMutability": "nonpayable",
      "type": "function"
    },
    {
      "inputs": [
        {
          "internalType": "bytes32",
          "name": "role",
          "type": "bytes32"
        },
        {
          "internalType": "address",
          "name": "account",
          "type": "address"
        }
      ],
      "name": "revokeRole",
      "outputs": [],
      "stateMutability": "nonpayable",
      "type": "function"
    },
    {
      "inputs": [
        {
          "internalType": "address",
          "name": "from",
          "type": "address"
        },
        {
          "internalType": "address",
          "name": "to",
          "type": "address"
        },
        {
          "internalType": "uint256[]",
          "name": "ids",
          "type": "uint256[]"
        },
        {
          "internalType": "uint256[]",
          "name": "amounts",
          "type": "uint256[]"
        },
        {
          "internalType": "bytes",
          "name": "data",
          "type": "bytes"
        }
      ],
      "name": "safeBatchTransferFrom",
      "outputs": [],
      "stateMutability": "nonpayable",
      "type": "function"
    },
    {
      "inputs": [
        {
          "internalType": "address",
          "name": "from",
          "type": "address"
        },
        {
          "internalType": "address",
          "name": "to",
          "type": "address"
        },
        {
          "internalType": "uint256",
          "name": "id",
          "type": "uint256"
        },
        {
          "internalType": "uint256",
          "name": "amount",
          "type": "uint256"
        },
        {
          "internalType": "bytes",
          "name": "data",
          "type": "bytes"
        }
      ],
      "name": "safeTransferFrom",
      "outputs": [],
      "stateMutability": "nonpayable",
      "type": "function"
    },
    {
      "inputs": [
        {
          "internalType": "address",
          "name": "operator",
          "type": "address"
        },
        {
          "internalType": "bool",
          "name": "approved",
          "type": "bool"
        }
      ],
      "name": "setApprovalForAll",
      "outputs": [],
      "stateMutability": "nonpayable",
      "type": "function"
    },
    {
      "inputs": [
        {
          "internalType": "bytes4",
          "name": "interfaceId",
          "type": "bytes4"
        }
      ],
      "name": "supportsInterface",
      "outputs": [
        {
          "internalType": "bool",
          "name": "",
          "type": "bool"
        }
      ],
      "stateMutability": "view",
      "type": "function"
    },
    {
      "inputs": [
        {
          "internalType": "uint256",
          "name": "",
          "type": "uint256"
        }
      ],
      "name": "uri",
      "outputs": [
        {
          "internalType": "string",
          "name": "",
          "type": "string"
        }
      ],
      "stateMutability": "view",
      "type": "function"
    }
  ],
  "bytecode": "0x60806040523480156200001157600080fd5b506040516200227138038062002271833981016040819052620000349162000254565b6040805160208101909152600081526200004e81620000e8565b506200005c60003362000101565b620000887f9f2df0fed2c77648de5860a4cc508cd0818c85b8b8a1ab4ceeef8d981c8956a63362000101565b620000b47fc8a41221bcd7fcf2c225f5a9265e1d4d39949d89197159d59e5f4b87b62c419e8262000101565b60048054336001600160a01b031991821617909155600580549091166001600160a01b0392909216919091179055620002c3565b8051620000fd906002906020840190620001ae565b5050565b60008281526003602090815260408083206001600160a01b0385168452909152902054620000fd908390839060ff16620000fd5760008281526003602090815260408083206001600160a01b03851684529091529020805460ff191660011790556200016a3390565b6001600160a01b0316816001600160a01b0316837f2f8788117e7eff1d82e926ec794901d17c78024a50270940304540a733656f0d60405160405180910390a45050565b828054620001bc9062000286565b90600052602060002090601f016020900481019282620001e057600085556200022b565b82601f10620001fb57805160ff19168380011785556200022b565b828001600101855582156200022b579182015b828111156200022b5782518255916020019190600101906200020e565b50620002399291506200023d565b5090565b5b808211156200023957600081556001016200023e565b6000602082840312156200026757600080fd5b81516001600160a01b03811681146200027f57600080fd5b9392505050565b600181811c908216806200029b57607f821691505b60208210811415620002bd57634e487b7160e01b600052602260045260246000fd5b50919050565b611f9e80620002d36000396000f3fe60806040526004361061014a5760003560e01c8063731133e9116100b6578063d53913931161006f578063d5391393146103e1578063d547741f14610415578063e2bbb15814610435578063e985e9c514610448578063f242432a14610491578063f851a440146104b157600080fd5b8063731133e91461032257806391d14854146103425780639a56b40714610362578063a217fddf14610378578063a22cb4651461038d578063ced3a403146103ad57600080fd5b80632f2ff15d116101085780632f2ff15d1461024757806336568abe14610267578063366a41201461028757806338af3eed146102a75780634e1273f4146102df57806355b153e01461030c57600080fd5b8062fdd58e1461014f57806301ffc9a71461018257806305a30a7a146101b25780630e89341c146101c8578063248a9ca3146101f55780632eb2c2d614610225575b600080fd5b34801561015b57600080fd5b5061016f61016a3660046118a4565b6104d1565b6040519081526020015b60405180910390f35b34801561018e57600080fd5b506101a261019d366004611a3c565b610568565b6040519015158152602001610179565b3480156101be57600080fd5b5061016f60085481565b3480156101d457600080fd5b506101e86101e3366004611a00565b610579565b6040516101799190611c58565b34801561020157600080fd5b5061016f610210366004611a00565b60009081526003602052604090206001015490565b34801561023157600080fd5b50610245610240366004611759565b61060d565b005b34801561025357600080fd5b50610245610262366004611a19565b6106a4565b34801561027357600080fd5b50610245610282366004611a19565b6106cf565b34801561029357600080fd5b506102456102a2366004611a76565b61074d565b3480156102b357600080fd5b506005546102c7906001600160a01b031681565b6040516001600160a01b039091168152602001610179565b3480156102eb57600080fd5b506102ff6102fa36600461192f565b61087b565b6040516101799190611c17565b34801561031857600080fd5b5061016f60075481565b34801561032e57600080fd5b5061024561033d3660046118ce565b6109a5565b34801561034e57600080fd5b506101a261035d366004611a19565b6109bd565b34801561036e57600080fd5b5061016f60065481565b34801561038457600080fd5b5061016f600081565b34801561039957600080fd5b506102456103a8366004611868565b6109e8565b3480156103b957600080fd5b5061016f7fc8a41221bcd7fcf2c225f5a9265e1d4d39949d89197159d59e5f4b87b62c419e81565b3480156103ed57600080fd5b5061016f7f9f2df0fed2c77648de5860a4cc508cd0818c85b8b8a1ab4ceeef8d981c8956a681565b34801561042157600080fd5b50610245610430366004611a19565b6109f3565b610245610443366004611a76565b610a19565b34801561045457600080fd5b506101a2610463366004611726565b6001600160a01b03918216600090815260016020908152604080832093909416825291909152205460ff1690565b34801561049d57600080fd5b506102456104ac366004611803565b610aca565b3480156104bd57600080fd5b506004546102c7906001600160a01b031681565b60006001600160a01b0383166105425760405162461bcd60e51b815260206004820152602b60248201527f455243313135353a2062616c616e636520717565727920666f7220746865207a60448201526a65726f206164647265737360a81b60648201526084015b60405180910390fd5b506000908152602081815260408083206001600160a01b03949094168352929052205490565b600061057382610b51565b92915050565b60606002805461058890611de4565b80601f01602080910402602001604051908101604052809291908181526020018280546105b490611de4565b80156106015780601f106105d657610100808354040283529160200191610601565b820191906000526020600020905b8154815290600101906020018083116105e457829003601f168201915b50505050509050919050565b6001600160a01b03851633148061062957506106298533610463565b6106905760405162461bcd60e51b815260206004820152603260248201527f455243313135353a207472616e736665722063616c6c6572206973206e6f74206044820152711bdddb995c881b9bdc88185c1c1c9bdd995960721b6064820152608401610539565b61069d8585858585610b76565b5050505050565b6000828152600360205260409020600101546106c08133610d53565b6106ca8383610db7565b505050565b6001600160a01b038116331461073f5760405162461bcd60e51b815260206004820152602f60248201527f416363657373436f6e74726f6c3a2063616e206f6e6c792072656e6f756e636560448201526e103937b632b9903337b91039b2b63360891b6064820152608401610539565b6107498282610e3d565b5050565b60006107598133610d53565b600061076530856104d1565b9050828110156107dd5760405162461bcd60e51b815260206004820152603d60248201527f4c6f6e675661756c743a20746f6b656e2072656c6561736520616d6f756e742060448201527f69732067726561746572207468616e20746f6b656e2062616c616e63650000006064820152608401610539565b61083630600560009054906101000a90046001600160a01b031686866000368080601f016020809104026020016040519081016040528093929190818152602001838380828437600092019190915250610aca92505050565b6040805185815260208101859052428183015290517fea91ec69d9ab5a214205bad93781970df8c1f8fa5321a97b10a6cbbe99c29d9c9181900360600190a150505050565b606081518351146108e05760405162461bcd60e51b815260206004820152602960248201527f455243313135353a206163636f756e747320616e6420696473206c656e677468604482015268040dad2e6dac2e8c6d60bb1b6064820152608401610539565b6000835167ffffffffffffffff8111156108fc576108fc611e93565b604051908082528060200260200182016040528015610925578160200160208202803683370190505b50905060005b845181101561099d5761097085828151811061094957610949611e7d565b602002602001015185838151811061096357610963611e7d565b60200260200101516104d1565b82828151811061098257610982611e7d565b602090810291909101015261099681611e4c565b905061092b565b509392505050565b60006109b18133610d53565b61069d85858585610ea4565b60009182526003602090815260408084206001600160a01b0393909316845291905290205460ff1690565b610749338383610fae565b600082815260036020526040902060010154610a0f8133610d53565b6106ca8383610e3d565b6000610a258133610d53565b60045460408051602036601f8101829004820283018201909352828252610a75936001600160a01b03169230928892889260009181908401838280828437600092019190915250610aca92505050565b60068390556007829055426008819055604080518581526020810185905280820192909252517fd819888697bb8af36d2a4237b7388035dfa56c7c478ffa19da4a19e17462f0969181900360600190a1505050565b6001600160a01b038516331480610ae65750610ae68533610463565b610b445760405162461bcd60e51b815260206004820152602960248201527f455243313135353a2063616c6c6572206973206e6f74206f776e6572206e6f7260448201526808185c1c1c9bdd995960ba1b6064820152608401610539565b61069d858585858561108f565b60006001600160e01b03198216637965db0b60e01b14806105735750610573826111ac565b8151835114610bd85760405162461bcd60e51b815260206004820152602860248201527f455243313135353a2069647320616e6420616d6f756e7473206c656e677468206044820152670dad2e6dac2e8c6d60c31b6064820152608401610539565b6001600160a01b038416610bfe5760405162461bcd60e51b815260040161053990611cb3565b3360005b8451811015610ce5576000858281518110610c1f57610c1f611e7d565b602002602001015190506000858381518110610c3d57610c3d611e7d565b602090810291909101810151600084815280835260408082206001600160a01b038e168352909352919091205490915081811015610c8d5760405162461bcd60e51b815260040161053990611cf8565b6000838152602081815260408083206001600160a01b038e8116855292528083208585039055908b16825281208054849290610cca908490611d66565b9250508190555050505080610cde90611e4c565b9050610c02565b50846001600160a01b0316866001600160a01b0316826001600160a01b03167f4a39dc06d4c0dbc64b70af90fd698a233a518aa5d07e595d983b8c0526c8f7fb8787604051610d35929190611c2a565b60405180910390a4610d4b8187878787876111fc565b505050505050565b610d5d82826109bd565b61074957610d75816001600160a01b03166014611367565b610d80836020611367565b604051602001610d91929190611aff565b60408051601f198184030181529082905262461bcd60e51b825261053991600401611c58565b610dc182826109bd565b6107495760008281526003602090815260408083206001600160a01b03851684529091529020805460ff19166001179055610df93390565b6001600160a01b0316816001600160a01b0316837f2f8788117e7eff1d82e926ec794901d17c78024a50270940304540a733656f0d60405160405180910390a45050565b610e4782826109bd565b156107495760008281526003602090815260408083206001600160a01b0385168085529252808320805460ff1916905551339285917ff6391f5c32d9c69d2a47ea670b442974b53935d1edc7fd64eb21e047a839171b9190a45050565b6001600160a01b038416610f045760405162461bcd60e51b815260206004820152602160248201527f455243313135353a206d696e7420746f20746865207a65726f206164647265736044820152607360f81b6064820152608401610539565b33610f1e81600087610f158861150a565b61069d8861150a565b6000848152602081815260408083206001600160a01b038916845290915281208054859290610f4e908490611d66565b909155505060408051858152602081018590526001600160a01b0380881692600092918516917fc3d58168c5ae7397731d063d5bbf3d657854427343f4c083240f7aacaa2d0f62910160405180910390a461069d81600087878787611555565b816001600160a01b0316836001600160a01b031614156110225760405162461bcd60e51b815260206004820152602960248201527f455243313135353a2073657474696e6720617070726f76616c20737461747573604482015268103337b91039b2b63360b91b6064820152608401610539565b6001600160a01b03838116600081815260016020908152604080832094871680845294825291829020805460ff191686151590811790915591519182527f17307eab39ab6107e8899845ad3d59bd9653f200f220920489ca2b5937696c31910160405180910390a3505050565b6001600160a01b0384166110b55760405162461bcd60e51b815260040161053990611cb3565b336110c5818787610f158861150a565b6000848152602081815260408083206001600160a01b038a168452909152902054838110156111065760405162461bcd60e51b815260040161053990611cf8565b6000858152602081815260408083206001600160a01b038b8116855292528083208785039055908816825281208054869290611143908490611d66565b909155505060408051868152602081018690526001600160a01b03808916928a821692918616917fc3d58168c5ae7397731d063d5bbf3d657854427343f4c083240f7aacaa2d0f62910160405180910390a46111a3828888888888611555565b50505050505050565b60006001600160e01b03198216636cdb3d1360e11b14806111dd57506001600160e01b031982166303a24d0760e21b145b8061057357506301ffc9a760e01b6001600160e01b0319831614610573565b6001600160a01b0384163b15610d4b5760405163bc197c8160e01b81526001600160a01b0385169063bc197c81906112409089908990889088908890600401611b74565b602060405180830381600087803b15801561125a57600080fd5b505af192505050801561128a575060408051601f3d908101601f1916820190925261128791810190611a59565b60015b61133757611296611ea9565b806308c379a014156112d057506112ab611ec5565b806112b657506112d2565b8060405162461bcd60e51b81526004016105399190611c58565b505b60405162461bcd60e51b815260206004820152603460248201527f455243313135353a207472616e7366657220746f206e6f6e20455243313135356044820152732932b1b2b4bb32b91034b6b83632b6b2b73a32b960611b6064820152608401610539565b6001600160e01b0319811663bc197c8160e01b146111a35760405162461bcd60e51b815260040161053990611c6b565b60606000611376836002611d7e565b611381906002611d66565b67ffffffffffffffff81111561139957611399611e93565b6040519080825280601f01601f1916602001820160405280156113c3576020820181803683370190505b509050600360fc1b816000815181106113de576113de611e7d565b60200101906001600160f81b031916908160001a905350600f60fb1b8160018151811061140d5761140d611e7d565b60200101906001600160f81b031916908160001a9053506000611431846002611d7e565b61143c906001611d66565b90505b60018111156114b4576f181899199a1a9b1b9c1cb0b131b232b360811b85600f166010811061147057611470611e7d565b1a60f81b82828151811061148657611486611e7d565b60200101906001600160f81b031916908160001a90535060049490941c936114ad81611dcd565b905061143f565b5083156115035760405162461bcd60e51b815260206004820181905260248201527f537472696e67733a20686578206c656e67746820696e73756666696369656e746044820152606401610539565b9392505050565b6040805160018082528183019092526060916000919060208083019080368337019050509050828160008151811061154457611544611e7d565b602090810291909101015292915050565b6001600160a01b0384163b15610d4b5760405163f23a6e6160e01b81526001600160a01b0385169063f23a6e61906115999089908990889088908890600401611bd2565b602060405180830381600087803b1580156115b357600080fd5b505af19250505080156115e3575060408051601f3d908101601f191682019092526115e091810190611a59565b60015b6115ef57611296611ea9565b6001600160e01b0319811663f23a6e6160e01b146111a35760405162461bcd60e51b815260040161053990611c6b565b80356001600160a01b038116811461163657600080fd5b919050565b600082601f83011261164c57600080fd5b8135602061165982611d42565b6040516116668282611e1f565b8381528281019150858301600585901b8701840188101561168657600080fd5b60005b858110156116a557813584529284019290840190600101611689565b5090979650505050505050565b600082601f8301126116c357600080fd5b813567ffffffffffffffff8111156116dd576116dd611e93565b6040516116f4601f8301601f191660200182611e1f565b81815284602083860101111561170957600080fd5b816020850160208301376000918101602001919091529392505050565b6000806040838503121561173957600080fd5b6117428361161f565b91506117506020840161161f565b90509250929050565b600080600080600060a0868803121561177157600080fd5b61177a8661161f565b94506117886020870161161f565b9350604086013567ffffffffffffffff808211156117a557600080fd5b6117b189838a0161163b565b945060608801359150808211156117c757600080fd5b6117d389838a0161163b565b935060808801359150808211156117e957600080fd5b506117f6888289016116b2565b9150509295509295909350565b600080600080600060a0868803121561181b57600080fd5b6118248661161f565b94506118326020870161161f565b93506040860135925060608601359150608086013567ffffffffffffffff81111561185c57600080fd5b6117f6888289016116b2565b6000806040838503121561187b57600080fd5b6118848361161f565b91506020830135801515811461189957600080fd5b809150509250929050565b600080604083850312156118b757600080fd5b6118c08361161f565b946020939093013593505050565b600080600080608085870312156118e457600080fd5b6118ed8561161f565b93506020850135925060408501359150606085013567ffffffffffffffff81111561191757600080fd5b611923878288016116b2565b91505092959194509250565b6000806040838503121561194257600080fd5b823567ffffffffffffffff8082111561195a57600080fd5b818501915085601f83011261196e57600080fd5b8135602061197b82611d42565b6040516119888282611e1f565b8381528281019150858301600585901b870184018b10156119a857600080fd5b600096505b848710156119d2576119be8161161f565b8352600196909601959183019183016119ad565b50965050860135925050808211156119e957600080fd5b506119f68582860161163b565b9150509250929050565b600060208284031215611a1257600080fd5b5035919050565b60008060408385031215611a2c57600080fd5b823591506117506020840161161f565b600060208284031215611a4e57600080fd5b813561150381611f4f565b600060208284031215611a6b57600080fd5b815161150381611f4f565b60008060408385031215611a8957600080fd5b50508035926020909101359150565b600081518084526020808501945080840160005b83811015611ac857815187529582019590820190600101611aac565b509495945050505050565b60008151808452611aeb816020860160208601611d9d565b601f01601f19169290920160200192915050565b7f416363657373436f6e74726f6c3a206163636f756e7420000000000000000000815260008351611b37816017850160208801611d9d565b7001034b99036b4b9b9b4b733903937b6329607d1b6017918401918201528351611b68816028840160208801611d9d565b01602801949350505050565b6001600160a01b0386811682528516602082015260a060408201819052600090611ba090830186611a98565b8281036060840152611bb28186611a98565b90508281036080840152611bc68185611ad3565b98975050505050505050565b6001600160a01b03868116825285166020820152604081018490526060810183905260a060808201819052600090611c0c90830184611ad3565b979650505050505050565b6020815260006115036020830184611a98565b604081526000611c3d6040830185611a98565b8281036020840152611c4f8185611a98565b95945050505050565b6020815260006115036020830184611ad3565b60208082526028908201527f455243313135353a204552433131353552656365697665722072656a656374656040820152676420746f6b656e7360c01b606082015260800190565b60208082526025908201527f455243313135353a207472616e7366657220746f20746865207a65726f206164604082015264647265737360d81b606082015260800190565b6020808252602a908201527f455243313135353a20696e73756666696369656e742062616c616e636520666f60408201526939103a3930b739b332b960b11b606082015260800190565b600067ffffffffffffffff821115611d5c57611d5c611e93565b5060051b60200190565b60008219821115611d7957611d79611e67565b500190565b6000816000190483118215151615611d9857611d98611e67565b500290565b60005b83811015611db8578181015183820152602001611da0565b83811115611dc7576000848401525b50505050565b600081611ddc57611ddc611e67565b506000190190565b600181811c90821680611df857607f821691505b60208210811415611e1957634e487b7160e01b600052602260045260246000fd5b50919050565b601f8201601f1916810167ffffffffffffffff81118282101715611e4557611e45611e93565b6040525050565b6000600019821415611e6057611e60611e67565b5060010190565b634e487b7160e01b600052601160045260246000fd5b634e487b7160e01b600052603260045260246000fd5b634e487b7160e01b600052604160045260246000fd5b600060033d1115611ec25760046000803e5060005160e01c5b90565b600060443d1015611ed35790565b6040516003193d81016004833e81513d67ffffffffffffffff8160248401118184111715611f0357505050505090565b8285019150815181811115611f1b5750505050505090565b843d8701016020828501011115611f355750505050505090565b611f4460208286010187611e1f565b509095945050505050565b6001600160e01b031981168114611f6557600080fd5b5056fea26469706673582212201b8036b334fbbaf4bc63d9bfc58195b880ebb5f386735346f3aa075934fde62964736f6c63430008060033",
  "linkReferences": {},
  "deployedLinkReferences": {}
}